:020000001C28BA
:100008007E14803120007F08F9000B1A8B1C0E2803
:10001800B72017280B1F17282100111F17282000A9
:10002800111F1728BA2079082000FF007E10090048
:100038001D287E1020009C28203022008C008E0174
:100048003E3021008C003D308E00093023008E00A8
:1000580013308C0024008C012100951722009D018B
:100068008B15080020009901970196011708F300E5
:100078001608F2001110210011140030FA000030A7
:10008800FB00A1200130200098000800210015087D
:10009800C0393F3895003830200095003830FC00D2
:1000A8007C08F8000B118B160030FA000030FB00BA
:1000B800A6200800B42020008E1011186D28BD203D
:1000C800003A031D6A2820008E1C5F2820008E1429
:1000D80061280E080800013021009D0002309E00B2
:1000E80030309F009B019C01111708000B11210063
:1000F8001517BF30FA000030FB00AB200B160800C4
:10010800760877040319080077088A0076080A0039
:100118008031080020209620B0206F2036207A20D9
:100128004A2008007A302100990022009601080030
:100138008E208B170B175E209F287B08F1007A080A
:10014800F00008007B08F5007A08F40008007B0836
:10015800F7007A08F600080016302100970008001A
:100168002000181408000B11842008002000111327
:08017800080001300800080036
:020000040001F9
:04000E00E4F9FFFF13
:00000001FF
