:020000001C28BA
:100008007E14803120007F08F9000B1A8B1C0E2803
:10001800DA2017280B1F17282100111F1728200086
:10002800111F1728DD2079082000FF007E10090025
:100038001D287E102000BB28D720220091171D10F4
:1000480020008E10200011183928CF20003A031DF7
:10005800302820008E1C332820008E1435282000DC
:100068008E10AF202200911326280E080800203099
:1000780022008C008E013E3021008C003D308E0025
:10008800093023008E0013308C0024008C012100DD
:10009800951722009D018B150800200099019701F2
:1000A80096011708F5001608F40011102100111424
:1000B8000030FA000030FB00C0200130200098001A
:1000C800080021001508C0393F3895003830200055
:1000D80095003830FC007C08F8000B118B160030B6
:1000E800FA000030FB00C52008002000181D8328F6
:1000F80018107B0897007A089600181408007B08E7
:1001080097007A0896000800013021009D0002300F
:100118009E0030309F009B019C01111708000B11B5
:1001280021001517E030FA000030FB00CA200B163A
:100138000800700871040319080071088A00700823
:100148000A00803108003B20B520D32088205120A8
:100158009320652008007508FB007408FA007920D0
:1001680008007A3021009900220096010800A72093
:100178008B170B172020BE287B08F3007A08F200A3
:1001880008007B08F7007A08F60008007B08F100F1
:100198007A08F00008002200150801390800163016
:1001A8002100970008002000181408000B119D205A
:0A01B80008002000111308000800E1
:020000040001F9
:04000E00E4F9FFFF13
:00000001FF
