:020000001128C5
:100008007E1480310B1F0F282100911C0F2820001F
:10001800911C0F282B207E1009001228F201F301F1
:100028007E102000732822008C018E013F302100B1
:100038008C001D308E00093023008E0017308C0094
:1000480024008C012100951722009D010800200042
:1000580091100130F2070030F33D00307302FF3099
:1000680003197202031C08004C20F201F301080076
:100078001F3020009B009A019110210091147530C7
:10008800F4000030F5006A200D3020009C000800C4
:10009800700871040319080071088A0070080A00C2
:1000A80080310800C0302C0093000F309200C0301F
:1000B80091000800172064206F2056203C2008007B
:1000C8007A30210099002200960108007508F10095
:1000D8007408F000080016302100970008005E2020
:0400E8007428080070
:020000040001F9
:04000E00E4F9FFFF13
:00000001FF
